{
  "contractName": "SocialNetwork",
  "abi": [
    {
      "inputs": [],
      "stateMutability": "nonpayable",
      "type": "constructor"
    },
    {
      "anonymous": false,
      "inputs": [
        {
          "indexed": false,
          "internalType": "uint256",
          "name": "id",
          "type": "uint256"
        },
        {
          "indexed": false,
          "internalType": "string",
          "name": "content",
          "type": "string"
        },
        {
          "indexed": false,
          "internalType": "uint256",
          "name": "tipAmount",
          "type": "uint256"
        },
        {
          "indexed": false,
          "internalType": "address payable",
          "name": "author",
          "type": "address"
        }
      ],
      "name": "PostCreated",
      "type": "event"
    },
    {
      "anonymous": false,
      "inputs": [
        {
          "indexed": false,
          "internalType": "uint256",
          "name": "id",
          "type": "uint256"
        },
        {
          "indexed": false,
          "internalType": "string",
          "name": "content",
          "type": "string"
        },
        {
          "indexed": false,
          "internalType": "uint256",
          "name": "tipAmount",
          "type": "uint256"
        },
        {
          "indexed": false,
          "internalType": "address payable",
          "name": "author",
          "type": "address"
        }
      ],
      "name": "PostTipped",
      "type": "event"
    },
    {
      "inputs": [],
      "name": "name",
      "outputs": [
        {
          "internalType": "string",
          "name": "",
          "type": "string"
        }
      ],
      "stateMutability": "view",
      "type": "function",
      "constant": true
    },
    {
      "inputs": [],
      "name": "owner",
      "outputs": [
        {
          "internalType": "address",
          "name": "",
          "type": "address"
        }
      ],
      "stateMutability": "view",
      "type": "function",
      "constant": true
    },
    {
      "inputs": [],
      "name": "postCount",
      "outputs": [
        {
          "internalType": "uint256",
          "name": "",
          "type": "uint256"
        }
      ],
      "stateMutability": "view",
      "type": "function",
      "constant": true
    },
    {
      "inputs": [
        {
          "internalType": "uint256",
          "name": "",
          "type": "uint256"
        }
      ],
      "name": "posts",
      "outputs": [
        {
          "internalType": "uint256",
          "name": "id",
          "type": "uint256"
        },
        {
          "internalType": "string",
          "name": "content",
          "type": "string"
        },
        {
          "internalType": "uint256",
          "name": "tipAmount",
          "type": "uint256"
        },
        {
          "internalType": "address payable",
          "name": "author",
          "type": "address"
        }
      ],
      "stateMutability": "view",
      "type": "function",
      "constant": true
    },
    {
      "inputs": [
        {
          "internalType": "string",
          "name": "_content",
          "type": "string"
        }
      ],
      "name": "createPost",
      "outputs": [],
      "stateMutability": "nonpayable",
      "type": "function"
    },
    {
      "inputs": [
        {
          "internalType": "uint256",
          "name": "_id",
          "type": "uint256"
        }
      ],
      "name": "tipAmount",
      "outputs": [],
      "stateMutability": "payable",
      "type": "function",
      "payable": true
    }
  ],
  "bytecode": "0x6080604052600080553480156200001557600080fd5b506040518060400160405280600681526020017f4368616c6965000000000000000000000000000000000000000000000000000081525060019080519060200190620000639291906200006a565b506200017f565b82805462000078906200011a565b90600052602060002090601f0160209004810192826200009c5760008555620000e8565b82601f10620000b757805160ff1916838001178555620000e8565b82800160010185558215620000e8579182015b82811115620000e7578251825591602001919060010190620000ca565b5b509050620000f79190620000fb565b5090565b5b8082111562000116576000816000905550600101620000fc565b5090565b600060028204905060018216806200013357607f821691505b602082108114156200014a576200014962000150565b5b50919050565b7f4e487b7100000000000000000000000000000000000000000000000000000000600052602260045260246000fd5b610d00806200018f6000396000f3fe6080604052600436106100555760003560e01c806306fdde031461005a5780630b1e7f831461008557806317906c2e146100c55780638da5cb5b146100f0578063c7303c611461011b578063cfbd7af814610144575b600080fd5b34801561006657600080fd5b5061006f610160565b60405161007c9190610930565b60405180910390f35b34801561009157600080fd5b506100ac60048036038101906100a79190610837565b6101ee565b6040516100bc94939291906109d9565b60405180910390f35b3480156100d157600080fd5b506100da6102c6565b6040516100e79190610972565b60405180910390f35b3480156100fc57600080fd5b506101056102cc565b6040516101129190610915565b60405180910390f35b34801561012757600080fd5b50610142600480360381019061013d91906107f6565b6102f2565b005b61015e60048036038101906101599190610837565b610459565b005b6001805461016d90610b9a565b80601f016020809104026020016040519081016040528092919081815260200182805461019990610b9a565b80156101e65780601f106101bb576101008083540402835291602001916101e6565b820191906000526020600020905b8154815290600101906020018083116101c957829003601f168201915b505050505081565b600360205280600052604060002060009150905080600001549080600101805461021790610b9a565b80601f016020809104026020016040519081016040528092919081815260200182805461024390610b9a565b80156102905780601f1061026557610100808354040283529160200191610290565b820191906000526020600020905b81548152906001019060200180831161027357829003601f168201915b5050505050908060020154908060030160009054906101000a900473ffffffffffffffffffffffffffffffffffffffff16905084565b60005481565b600260009054906101000a900473ffffffffffffffffffffffffffffffffffffffff1681565b6000815111610336576040517f08c379a000000000000000000000000000000000000000000000000000000000815260040161032d90610952565b60405180910390fd5b60008081548092919061034890610bcc565b919050555060405180608001604052806000548152602001828152602001600081526020013373ffffffffffffffffffffffffffffffffffffffff1681525060036000805481526020019081526020016000206000820151816000015560208201518160010190805190602001906103c19291906106d6565b506040820151816002015560608201518160030160006101000a81548173ffffffffffffffffffffffffffffffffffffffff021916908373ffffffffffffffffffffffffffffffffffffffff1602179055509050507fc66336337a24e513f909b3b25119854dba8385d51307dbc7d31d1b2805e19c7e6000548260003360405161044e949392919061098d565b60405180910390a150565b60008111801561046b57506000548111155b61047457600080fd5b600060036000838152602001908152602001600020604051806080016040529081600082015481526020016001820180546104ae90610b9a565b80601f01602080910402602001604051908101604052809291908181526020018280546104da90610b9a565b80156105275780601f106104fc57610100808354040283529160200191610527565b820191906000526020600020905b81548152906001019060200180831161050a57829003601f168201915b50505050508152602001600282015481526020016003820160009054906101000a900473ffffffffffffffffffffffffffffffffffffffff1673ffffffffffffffffffffffffffffffffffffffff1673ffffffffffffffffffffffffffffffffffffffff168152505090506000816060015190508073ffffffffffffffffffffffffffffffffffffffff166108fc349081150290604051600060405180830381858888f193505050501580156105e1573d6000803e3d6000fd5b503482604001516105f29190610aa2565b82604001818152505081600360008581526020019081526020016000206000820151816000015560208201518160010190805190602001906106359291906106d6565b506040820151816002015560608201518160030160006101000a81548173ffffffffffffffffffffffffffffffffffffffff021916908373ffffffffffffffffffffffffffffffffffffffff1602179055509050507f20988fe475351e75813672abada1dddb7ac67cbbeb81e61e1160b8329d8cdf1c60005483602001518460400151846040516106c994939291906109d9565b60405180910390a1505050565b8280546106e290610b9a565b90600052602060002090601f016020900481019282610704576000855561074b565b82601f1061071d57805160ff191683800117855561074b565b8280016001018555821561074b579182015b8281111561074a57825182559160200191906001019061072f565b5b509050610758919061075c565b5090565b5b8082111561077557600081600090555060010161075d565b5090565b600061078c61078784610a56565b610a25565b9050828152602081018484840111156107a457600080fd5b6107af848285610b58565b509392505050565b600082601f8301126107c857600080fd5b81356107d8848260208601610779565b91505092915050565b6000813590506107f081610cb3565b92915050565b60006020828403121561080857600080fd5b600082013567ffffffffffffffff81111561082257600080fd5b61082e848285016107b7565b91505092915050565b60006020828403121561084957600080fd5b6000610857848285016107e1565b91505092915050565b61086981610b0a565b82525050565b61087881610af8565b82525050565b61088781610b46565b82525050565b600061089882610a86565b6108a28185610a91565b93506108b2818560208601610b67565b6108bb81610ca2565b840191505092915050565b60006108d3601b83610a91565b91507f636f6e74656e742073686f756c64206e6f7420626520626c616e6b00000000006000830152602082019050919050565b61090f81610b3c565b82525050565b600060208201905061092a600083018461086f565b92915050565b6000602082019050818103600083015261094a818461088d565b905092915050565b6000602082019050818103600083015261096b816108c6565b9050919050565b60006020820190506109876000830184610906565b92915050565b60006080820190506109a26000830187610906565b81810360208301526109b4818661088d565b90506109c3604083018561087e565b6109d06060830184610860565b95945050505050565b60006080820190506109ee6000830187610906565b8181036020830152610a00818661088d565b9050610a0f6040830185610906565b610a1c6060830184610860565b95945050505050565b6000604051905081810181811067ffffffffffffffff82111715610a4c57610a4b610c73565b5b8060405250919050565b600067ffffffffffffffff821115610a7157610a70610c73565b5b601f19601f8301169050602081019050919050565b600081519050919050565b600082825260208201905092915050565b6000610aad82610b3c565b9150610ab883610b3c565b9250827fffffffffffffffffffffffffffffffffffffffffffffffffffffffffffffffff03821115610aed57610aec610c15565b5b828201905092915050565b6000610b0382610b1c565b9050919050565b6000610b1582610b1c565b9050919050565b600073ffffffffffffffffffffffffffffffffffffffff82169050919050565b6000819050919050565b6000610b5182610b3c565b9050919050565b82818337600083830152505050565b60005b83811015610b85578082015181840152602081019050610b6a565b83811115610b94576000848401525b50505050565b60006002820490506001821680610bb257607f821691505b60208210811415610bc657610bc5610c44565b5b50919050565b6000610bd782610b3c565b91507fffffffffffffffffffffffffffffffffffffffffffffffffffffffffffffffff821415610c0a57610c09610c15565b5b600182019050919050565b7f4e487b7100000000000000000000000000000000000000000000000000000000600052601160045260246000fd5b7f4e487b7100000000000000000000000000000000000000000000000000000000600052602260045260246000fd5b7f4e487b7100000000000000000000000000000000000000000000000000000000600052604160045260246000fd5b6000601f19601f8301169050919050565b610cbc81610b3c565b8114610cc757600080fd5b5056fea26469706673582212203bddc4bb0bc141a1d4c6fa68fe0b51cc7264c1cbba548708bb6a9f3993543d1064736f6c63430008000033",
  "immutableReferences": {},
  "source": "// SPDX-License-Identifier: MIT\npragma solidity ^0.8.0;\n\ncontract SocialNetwork {\n   uint public postCount = 0;\n   string public name;\n   address public owner;\n   mapping(uint => Post) public posts;\n   struct Post{\n      uint id;\n      string content;\n      uint tipAmount;\n      address payable author;\n   }\n   event PostCreated(uint id,string content,uint tipAmount,address payable author);\n   event PostTipped(uint id,string content,uint tipAmount,address payable author);\n   constructor() {\n      name =\"Chalie\";\n   }\n\n   function createPost(string memory _content) public {\n      require(bytes(_content).length > 0,\"content should not be blank\");\n      postCount ++;\n      posts[postCount] = Post(postCount,_content,0,payable(msg.sender));\n      emit PostCreated(postCount,_content,0, payable(msg.sender));\n   }\n\n   function tipAmount(uint _id)public payable{\n      require(_id > 0 && _id <= postCount );\n      Post memory _post = posts[_id];\n      address payable _author = _post.author;\n\n      _author.transfer(msg.value);\n\n      _post.tipAmount = _post.tipAmount + msg.value ;\n      posts[_id]= _post;\n      emit PostTipped(postCount,_post.content,_post.tipAmount,_author);\n   }\n\n}\n",
  "sourcePath": "/Users/nisargpatel/Blockchain/smartcontract/contracts/SocialNetwork.sol",
  "compiler": {
    "name": "solc",
    "version": "0.8.0+commit.c7dfd78e.Emscripten.clang"
  },
  "schemaVersion": "3.4.10",
  "updatedAt": "2022-10-05T16:03:01.463Z",
  "networkType": "ethereum",
  "devdoc": {
    "kind": "dev",
    "methods": {},
    "version": 1
  },
  "userdoc": {
    "kind": "user",
    "methods": {},
    "version": 1
  }
}